:100000000C94BE0C0C94E80C0C94E80C0C94E80CCA
:100010000C94E80C0C94E80C0C94E80C0C94E80C90
:100020000C94E80C0C94E80C0C94F96E0C94886D0C
:100030000C94E80C0C94E80C0C94E80C0C94E80C70
:100040000C94E80C0C94D54E0C94E80C0C94E80C31
:100050000C94E80C0C94E80C0C94C95B0C94F465BB
:100060000C94E80C0C94E80C0C94E80C0C94E80C40
:100070000C94E80C0C94E80C0C94E80C0C94E80C30
:100080000C94E80C0C94E80C0C94E80C0C94E80C20
:100090000C94E80C0C94E80C0E6713671867226741
:1000A0002C67646736673E67466750675A6785679F
:1000B000886777677B678167A3678C6790679667B8
:1000C0009A679E67084AD73B3BCE016E84BCBFFD52
:1000D000C12F3D6C74319ABD56833DDA3D00C77F18
:1000E00011BED9E4BB4C3E916BAAAABE00000080B1
:1000F0003F05A84CCDB2D44EB93836A9020C50B940
:10010000918688083CA6AAAA2ABE000000803F006B
:100110002020506C616E6E65724275666665724233
:10012000797465733A20002046726565204D656DCF
:100130006F72793A2000436F6D70696C65643A2084
:100140004E6F7620323020323031380A00207C2049
:10015000417574686F723A20426172746F737A20CD
:1001600052616A6577736B6920666F7220764269A7
:100170006F6E69630A00323031382D30382D3031DE
:1001800000204C61737420557064617465643A207A
:1001900000312E312E390A004D61726C696E0020DB
:1001A000536F6674776172652052657365740A00D7
:1001B000205761746368646F672052657365740AC1
:1001C000002042726F776E206F75742052657365E0
:1001D000740A002045787465726E616C20526573F4
:1001E00065740A00506F77657255700A0073746108
:1001F00072740A005072696E7465722068616C7462
:1002000065642E206B696C6C28292063616C6C65B9
:1002100064210A004B494C4C45442E20004B494C6C
:100220004C2063617573656420627920746F6F2060
:100230006D75636820696E616374697665207469A1
:100240006D65202D2063757272656E7420636F6D0D
:100250006D616E643A200020746F6F206C6F6E6762
:1002600020657874727573696F6E2070726576653B
:100270006E7465640A0020636F6C64206578747224
:100280007573696F6E2070726576656E7465640A49
:10029000006F6B00526573656E643A20004E6F20EC
:1002A00063617365206C696768740A0043290A00FA
:1002B00061626C656420286D696E2074656D7020C4
:1002C00000436F6C64206578747275646573206197
:1002D00072652000496E76616C696420657874727D
:1002E000756465720A0020643A0020693A00207043
:1002F0003A0020466C6F773A2000205A00205900BF
:10030000580020204D61783A2000205A00205900E2
:10031000580020204D696E3A20004F6666004F6EEF
:100320002000536F667420656E6473746F70733A47
:100330002000546F6F206661722066726F6D2072AC
:1003400065666572656E636520706F696E740A001C
:10035000205400205200416363656C6572617469CA
:100360006F6E3A2050002F2F20003A004361703A00
:1003700000544845524D414C5F50524F54454354F0
:10038000494F4E004155544F5245504F52545F53C0
:10039000445F53544154555300454D455247454ED3
:1003A00043595F50415253455200434153455F4CBE
:1003B000494748545F4252494748544E45535300B9
:1003C000544F47474C455F4C494748545300534F9F
:1003D0004654574152455F504F5745520042554988
:1003E0004C445F50455243454E54004C4556454C95
:1003F000494E475F44415441005A5F50524F424575
:10040000004155544F4C4556454C005052494E54AE
:100410005F4A4F420050524F475245535300415597
:10042000544F5245504F52545F54454D5000564F13
:100430004C554D455452494300454550524F4D008F
:1004400053455249414C5F584F4E5F584F46460006
:100450004649524D574152455F4E414D453A4D61D7
:10046000726C696E20312E312E39202847697468EC
:1004700075622920534F555243455F434F44455FB2
:1004800055524C3A68747470733A2F2F67697468C8
:1004900075622E636F6D2F626172746F737A726111
:1004A0006A6577736B692050524F544F434F4C5FCE
:1004B00056455253494F4E3A312E30204D41434814
:1004C000494E455F545950453A4741544520322ED4
:1004D000302045585452554445525F434F554E5471
:1004E0003A3120555549443A636564653261326654
:1004F0002D343161322D343734382D396231322D7B
:100500006335356336326633363766660A00205700
:100510003A0020573A006F6B004D313133205300C1
:100520004B494C4C45442E20004543484F00494E12
:10053000464F004552524F52530044525952554E65
:1005400000434F4D4D554E49434154494F4E006F66
:1005500066660029052E0533053A054105444542E6
:1005600055473A0050726F74656374656420506932
:100570006E0A0000011C1D131BFFFFFFFF1E1F1250
:100580001AFFFFFFFF202111FF19FFFFFFFFFF28C8
:100590000A0FFFFFFF22230CFFFFFF0A0608FF18C8
:1005A0000E0D0B2569730025696D202569730025E3
:1005B00069682025696D20256973002569642025F7
:1005C00069682025696D20256973002569792025D2
:1005D0006964202569682025696D202569730050AC
:1005E00072696E742074696D653A200047322F4736
:1005F000332062616420706172616D65746572732D
:100600000A00496E76616C6964206578747275645D
:1006100065720A0041637469766520457874727565
:100620006465723A200020453A00205A3A00205969
:100630003A00583A002C20002C20005761726E6955
:100640006E673A20486F6D696E672042756D702045
:1006500044697669736F72203C20310A00020204FB
:10066000627573793A2070617573656420666F7284
:1006700020696E7075740A00627573793A20706132
:100680007573656420666F7220757365720A006207
:100690007573793A2070726F63657373696E670A58
:1006A000002066697273740A005A005900580048A5
:1006B0006F6D65200020496E76616C6964206578F5
:1006C00074727564657220004B494C4C45442E2071
:1006D000005072696E7465722073746F7070656417
:1006E0002064756520746F206572726F72732E209E
:1006F00046697820746865206572726F7220616E39
:100700006420757365204D39393920746F20726506
:1007100073746172742E202854656D7065726174F3
:100720007572652069732072657365742E20536538
:1007300074206974206166746572207265737461D7
:100740007274696E67290A004E6F20436865636B97
:1007500073756D2077697468206C696E65206E759D
:100760006D6265722C204C617374204C696E653A21
:100770002000636865636B73756D206D69736D61CF
:100780007463682C204C617374204C696E653A2048
:10079000004C696E65204E756D626572206973202C
:1007A0006E6F74204C617374204C696E65204E75B9
:1007B0006D6265722B312C204C617374204C696E14
:1007C000653A20004D31313000656E717565756593
:1007D000696E67202200FFFF010000A0400000A01A
:1007E000400000004000004843000048430000482B
:1007F00043000000000000000000004843000048E3
:10080000430000484300004843000000000000008F
:1008100000000000000000484200004842000000C4
:10082000410000000020286D6D290020440020496F
:100830000020204D33303120500050494420736552
:100840007474696E67733A0A00205A0020590020B8
:10085000204D323036205800486F6D65206F666637
:100860007365743A0A00204500205A002059002080
:10087000580020540020530020204D3230352051A4
:100880000020453C6D61785F655F6A65726B3E0074
:1008900020583C6D61785F785F6A65726B3E2059C5
:1008A0003C6D61785F795F6A65726B3E205A3C6D82
:1008B00061785F7A5F6A65726B3E00416476616E53
:1008C0006365643A20513C6D696E5F7365676D6561
:1008D0006E745F74696D655F75733E20533C6D691E
:1008E0006E5F66656564726174653E20543C6D6937
:1008F0006E5F74726176656C5F6665656472617463
:10090000653E0020540020520020204D323034201B
:100910005000416363656C65726174696F6E202875
:10092000756E6974732F7332293A20503C70726966
:100930006E745F616363656C3E20523C72657472D5
:100940006163745F616363656C3E20543C747261E3
:1009500076656C5F616363656C3E0A00204500202C
:100960005A0020590020204D3230312058004D616E
:1009700078696D756D20416363656C65726174693A
:100980006F6E2028756E6974732F7332293A0A00CE
:10099000204500205A0020590020204D32303320BD
:1009A00058004D6178696D756D206665656472618A
:1009B0007465732028756E6974732F73293A0A0061
:1009C000204500205A0020590020204D393220585F
:1009D0000053746570732070657220756E69743A87
:1009E0000A0020204D3230302044300A0020204DB3
:1009F0003230302044002044697361626C65640ABF
:100A00000046696C616D656E742073657474696EFF
:100A100067733A002020473231202020203B0048D5
:100A2000617264636F6465642044656661756C74AB
:100A30002053657474696E6773204C6F61646564DC
:100A40000A00881300008813000032000000B80B71
:100A5000000000409C4600409C4600008040000092
:100A6000484248619D4248619D4200004844000060
:100A7000CE42454550524F4D2064697361626C65AA
:100A8000640A006F70656E005452494747455245ED
:100A900044003A20007A5F6D617800795F6D696E7D
:100AA00000785F6D696E005265706F7274696E6771
:100AB00020656E6473746F70207374617475730A4B
:100AC00000205A3A0020593A0020583A00656E64D6
:100AD00073746F7073206869743A2000486F6D6991
:100AE0006E67206661696C656400556E6B6E6F772A
:100AF0006E20636F6D6D616E643A20220020746F0A
:100B00006F206C6F6E6720657874727573696F6E95
:100B10002070726576656E7465640A0020636F6C80
:100B20006420657874727573696F6E207072657673
:100B3000656E7465640A006563686F3A0045727299
:100B40006F723A00205A3A0020593A0020436F75DC
:100B50006E7420583A00043700001E290000511B13
:100B600000005810000010090000CC0400007802BA
:100B700000004101000024F4D43050C38E20C2A2F2
:100B80004017828B7011127A910D816CD90AA8617D
:100B9000E108C7586607615143061E4B5D05C14514
:100BA000A7041A411104093D9803713931034036F5
:100BB000DB0265339102D4305402802E1D02632C77
:100BC000EE01752AC501B028A001102781018F25EB
:100BD00064012B244B01E0223401AC211F018D2044
:100BE0000D01801FFC00841EED00971DDF00B81C66
:100BF000D200E61BC600201BBC00641AB200B2196A
:100C0000A8000A19A0006A189900D117910040178E
:100C10008B00B516840031167E00B31579003A15A5
:100C20007300C7146F0058146A00EE13660088132F
:100C3000630025135E00C7125B006C12570015128B
:100C40005400C111510070114F0021114B00D610FA
:100C500049008D1047004610440002104200C00FAA
:100C60004000800F3E00420F3C00060F3B00CB0EC1
:100C70003800930E37005C0E3500270E3400F30D5C
:100C80003200C10D3100900D3000600D2E00320D8C
:100C90002D00050D2C00D90C2B00AE0C2900850C65
:100CA00029005C0C2700350C27000E0C2600E80BF1
:100CB0002400C40B2400A00B23007D0B23005A0B3F
:100CC0002100390B2100180B2000F80A1F00D90A57
:100CD0001E00BB0A1E009D0A1D00800A1D00630A3B
:100CE0001C00470A1B002C0A1B00110A1A00F709F6
:100CF0001A00DD091900C4091900AB09190092098D
:100D000017007B091800630917004C091600360903
:100D10001600200916000A091500F5081500E0085C
:100D20001400CC081400B8081400A408140090089B
:100D300013007D0812006B081300580812004608C3
:100D400012003408110023081100120811000108D4
:100D50001100F0071000E0071000D0071000C007D6
:100D60001000B0070F00A107100091070E008307C5
:100D70000F0074070F0065070E0057070E004907A4
:100D80000E003B070D002E070E0020070D00130775
:100D90000D0006070D00F9060C00ED060D00E0063B
:100DA0000C00D4060C00C8060C00BC060C00B006F3
:100DB0000C00A4060B0099060C008D060B008206A1
:100DC0000B0077060B006C060B0061060A00570645
:100DD0000B004C060A0042060A0038060A002E06DE
:100DE0000A0024060A001A060A001006090007066F
:100DF0000A00FD050900F4050900EB050900E205FC
:100E00000900D9050900D0050900C7050900BE057C
:100E10000900B5050800AD050800A50509009C05F9
:100E20000800940508008C050800840508007C056E
:100E30000800740508006C050700650508005D05DD
:100E40000700560508004E05070047050700400546
:100E5000080038050700310507002A0507002305AB
:100E600007001C050600160507000F05070008050A
:100E7000060002050700FB040600F5040700EE0467
:100E80000600E8040600E2040700DB040600D504BF
:100E90000600CF040600C9040600C3040600BD0412
:100EA0000600B7040600B1040500AC040600A60461
:100EB0000600A00405009B040600950405009004AC
:100EC00006008A04050085040500800406007A04F3
:100ED000050075040500700405006B040500660438
:100EE0000500610405005C04050057040500520478
:100EF00005004D04050048040500430405003E04B8
:100F000004003A04050035040500300404002C04F4
:100F1000050027040400230405001E0404001A042D
:100F2000040016040500110404000D040400090463
:100F300005000404040000040400FC030400F8039A
:100F40000400F4030400F0030400EC030400E803CD
:100F50000400E4030400E0030400DC030400D803FD
:100F60000400D4030400D0030400CC030400C8032D
:100F70000300C503030024F404D9201BC40C5C0E39
:100F80009804C4095F0265077101F405F900FB04C8
:100F9000B30048048700C1036900580355000303E8
:100FA0004500BE023A008402310053022A002902A1
:100FB000250004022000E4011C00C8011900AF0153
:100FC00017009801140084011300710110006101E1
:100FD000100051010E0043010D0036010B002B01E2
:100FE0000B0020010B00150109000C010900030191
:100FF0000800FB000800F3000800EB000700E40015
:101000000600DE000600D8000600D2000600CC0074
:101010000500C7000500C2000500BD000400B900BE
:101020000400B5000400B1000400AD000400A900F4
:101030000400A5000300A20003009F0004009B0021
:101040000300980003009500020093000300900045
:1010500003008D0002008B00030088000200860060
:10106000020084000300810002007F0002007D0076
:1010700002007B0002007900020077000100760088
:1010800002007400020072000100710002006F0093
:1010900002006D0001006C0002006A00010069009E
:1010A00002006700010066000100650001006400A5
:1010B00002006200010061000100600001005F00A9
:1010C00002005D0001005C0001005B0001005A00AD
:1010D00001005900010058000100570001005600AE
:1010E00001005500010054000100530000005300AE
:1010F00001005200010051000100500001004F00AA
:1011000001004E0000004E0001004D0001004C00A7
:1011100001004B0000004B0001004A0001004900A3
:10112000010048000000480001004700010046009F
:101130000000460001004500000045000100440099
:101140000100430000004300010042000000420093
:1011500001004100000041000100400001003F008B
:1011600000003F0001003E0000003E0001003D0085
:1011700000003D0001003C0000003C0000003C007D
:1011800001003B0000003B0001003A0000003A0073
:10119000010039000000390001003800000038006B
:1011A0000000380001003700000037000100360061
:1011B0000000360000003600010035000000350058
:1011C000000035000100340000003400000034004D
:1011D0000100330000003300000033000100320042
:1011E0000000320000003200010031000000310038
:1011F000000031000100300000003000000030002D
:1012000001002F0000002F0000002F0000002F0021
:1012100001002E0000002E0000002E0001002D0015
:1012200000002D0000002D0000002D0001002C000A
:1012300000002C0000002C0000002C0001002B00FE
:1012400000002B0000002B0000002B0001002A00F2
:1012500000002A0000002A0000002A0001002900E6
:1012600000002900000029000000290000002900DA
:1012700001002800000028000000280000002800CD
:1012800000002800010027000000270000002700C0
:1012900000002700000027000100260000002600B3
:1012A00000002600000026000000260001002500A6
:1012B000000025000000250000002500000025009A
:1012C000000025000100240000002400000024008C
:1012D000000024000000240001002300000023007F
:1012E0000000230000002300000023000000230072
:1012F0000000230001002200000022000000220064
:101300000000220000002200000022000100210055
:101310000000210000002100000021000000210049
:10132000000021000000210001002000000020003A
:10133000000020000000200000002000000020002D
:10134000000020000000200001001F0000001F001E
:1013500000001F0000001F0000001F0000001F0011
:1013600000001F0001001E0000001E0000001E0003
:1013700000001E0000002042403A0020403A0020B9
:101380002F00546865726D616C2052756E617761D3
:101390007900453120544845524D414C2052554E1C
:1013A000415741590042454420544845524D414C13
:1013B0002052554E41574159004B494C4C45442E03
:1013C0002000202D20496E76616C69642065787458
:1013D0007275646572206E756D62657220210A00F7
:1013E00048656174696E67206661696C6564004276
:1013F00065642068656174696E67206661696C6503
:10140000640048656174696E67206661696C656433
:101410000045312048656174696E67206661696CBA
:101420006564004D494E54454D502074726967679C
:1014300065726564004531204572723A204D494E0F
:1014400054454D50004572723A204D494E54454D19
:101450005020424544004D415854454D502074722F
:1014600069676765726564004531204572723A208C
:101470004D415854454D50004572723A204D4158E7
:1014800054454D5020424544006265640A002C20BA
:1014900073797374656D2073746F70706564212047
:1014A0004865617465725F49443A2000236465664B
:1014B000696E652044454641554C545F4B6420009D
:1014C00023646566696E652044454641554C545F0A
:1014D0004B69200023646566696E6520444546417A
:1014E000554C545F4B702000504944204175746F37
:1014F00074756E652066696E697368656421205035
:10150000757420746865206C617374204B702C2096
:101510004B6920616E64204B6420636F6E7374614D
:101520006E74732066726F6D2062656C6F772069D0
:101530006E746F20436F6E66696775726174696F50
:101540006E2E680A00504944204175746F74756EA0
:1015500065206661696C6564212074696D656F75CD
:10156000740A00546865726D616C2052756E617703
:10157000617900453120544845524D414C20525527
:101580004E415741590048656174696E6720666134
:10159000696C65640045312048656174696E672037
:1015A0006661696C656400504944204175746F74CC
:1015B000756E65206661696C6564212054656D7087
:1015C0006572617475726520746F6F2068696768F1
:1015D0000A00204B643A2000204B693A2000204B3F
:1015E000703A20000A20436C61737369632050498C
:1015F00044200A002054753A2000204B753A200000
:10160000206D61783A2000206D696E3A20002064D8
:101610003A200020626961733A2000504944204119
:1016200075746F74756E652073746172740A0050FE
:101630004944204175746F74756E65206661696CEC
:1016400065642120426164206578747275646572F6
:10165000206E756D6265720A0000000000E00D01E9
:1016600000600E0A00000F1400800F1E00001028FA
:10167000008010320000113C008011460000125022
:101680000080125A000013640080136E002014784A
:1016900000A014820000158C00801596000016A092
:1016A000008016AA000017B4008017BE000018C8FA
:1016B000008018D2000019DC008019E600E019F063
:1016C00000601AFA00E01A0401401B0E01C01B184A
:1016D00001401C2201A01C2C01201D3601A01D4030
:1016E00001201E4A01801E5401001F5E01601F6818
:1016F00001E01F720140207C01C020860140219042
:10170000018025F401A0295802602DBC022031205F
:1017100003A03484030038E803203B4C0470012C00
:101720000190012701B0012201C0011D01F0011843
:10173000011002130130020E01600209019002043F
:1017400001C002FF000003FA004003F5008003F02F
:1017500000D003EB002004E6007004E100E004DCAC
:10176000004005D700C005D2004006CD00D006C815
:10177000008007C3003008BE00F008B900C009B4FB
:1017800000B00AAF00B00BAA00D00CA500000EA05C
:1017900000500F9B00C01096005012910000148C56
:1017A00000C0158700B0178200B0197D00D01B78EB
:1017B00000001E730040206E0090226900F0246437
:1017C0000040275F0090295A00E02B5500102E5052
:1017D0000020304B0010324600E033410090353C91
:1017E000001037370070383200A0392D00B03A2889
:1017F00000A03B2300603C1E00103D1900903D14EA
:1018000000103E0F00703E0A00C03E0500003F0081
:1018100000403FFBFF803FF6FFC03FF1FF000000AC
:101820000000000B0A09000000000000000000009A
:10183000000000000703040500000208000000008B
:101840000000000000000000000000000001020194
:10185000020408102040808040201008040201404B
:1018600001020408102040808008010204081020B2
:101870004080040102040810204080102005050368
:10188000030303030303030606060606060606050E
:101890000202020202020202050504040404040416
:1018A00004040501010101010101010505000020F9
:1018B000002300260029002C002F00000022002514
:1018C0000028002B002E00310000002100240027FA
:1018D000002A002D0030000904000001020200006F
:1018E0000524001001052401010104240206052439
:1018F0000600010705810310004009040100020AE7
:1019000000000007050202400000070583024000B6
:10191000001201000202000010D01657050001015C
:101920000203014D61747461697254656368004D0E
:10193000542D44422D553600040309044E414E49AE
:101940004E495459494E46CDCCCC3D0AD7233C177D
:10195000B7D13877CC2B329595E6241FB14F0A00CA
:101960000020410000C84200401C4620BCBE4CCABA
:101970001B0E5AAEC59D74002543F76811241FBE87
:10198000CFEFD0E2DEBFCDBF11E0A0E0B1E0EAE4EE
:10199000F8EF00E00BBF02C007900D92AC3AB10720
:1019A000D9F72BE0ACEAB1E001C01D92AC33B2072D
:1019B000E1F71CE0CEEBDCE004C02197FE010E94C1
:1019C000D774CC3BD107C9F70E948E6F0C94237C4F
:1019D0000C9400008CE0E6E1F2E0ABE0B4E00190B2
:1019E0000D928A95E1F708954F925F926F927F92E0
:1019F000AF92BF92CF92DF92EF92FF92CF93DF939D
:101A0000EB01FC0160817181828193812CE3C22E04
:101A1000D12CE12CF12CA70196010E949674B62ED0
:101A2000A72ECA01B901A70196010E9496746B0105
:101A30007C01CA01B90128E130E040E050E00E9499
:101A400096742B013C01C9016DE671E00E9482741D
:101A500061157105D9F0AF92BF92DF92CF925F927C
:101A60004F929F938F937F936F938BEC95E09F930F
:101A70008F93DF93CF930E9449798DB79EB70E96CF
:101A80000FB6F8949EBF0FBE8DBF61C00097C9F01E
:101A9000AF92BF92DF92CF925F924F929F938F93BC
:101AA0008BEB95E09F938F93DF93CF930E944979BF
:101AB000EDB7FEB73C960FB6F894FEBF0FBEEDBF74
:101AC00046C04114510461047104B9F0AF92BF9251
:101AD000DF92CF925F924F928FEA95E09F938F9320
:101AE000DF93CF930E9449798DB79EB70A960FB6C0
:101AF000F8949EBF0FBE8DBF2AC0C114D104E1046B
:101B0000F104A9F0AF92BF92DF92CF9287EA95E0FD
:101B10009F938F93DF93CF930E944979EDB7FEB7E0
:101B200038960FB6F894FEBF0FBEEDBF10C0AF924F
:101B3000BF9283EA95E09F938F93DF93CF930E94A8
:101B400049790F900F900F900F900F900F90DF91A9
:101B5000CF91FF90EF90DF90CF90BF90AF907F90AC
:101B60006F905F904F90089581548A3108F040C083
:101B7000A82FB0E040913C0450913D0460913E0498
:101B800070913F0404C076956795579547958A955F
:101B9000D2F740FF2DC0E0914704F0914804AE5DBC
:101BA000BB4F8C918823E1F0E80FF11D808190ED0F
:101BB000980F9A3080F08E3229F4818180538A30D8
:101BC00078F409C08D3211F08B3251F4818190ED9F
:101BD000980F9A3018F49E2F8F2F04C08E3251F038
:101BE00090E080E0909343048093440481E0089562
:101BF00080E00895828180538A3090F7ECCF0E9474
:101C0000B40D882341F081E02091430430914404D5
:101C1000232B09F480E008950F931F93CF938091B5
:101C2000430490914404009711F1FC018F01C1918C
:101C30002C2F2F7DA9F0C53411F0C536B9F7F80166
:101C4000108260E070E080914304909144040E940F
:101C5000FA74F801C083562F472F382F292F0BC055
:101C600060E070E0CF911F910F910C94FA7450E0F6
:101C700040E030E020E0652F742F832F922FCF912A
:101C80001F910F910895809143049091440400970F
:101C900031F04AE050E060E070E00C94697660E07A
:101CA00070E0CB0108958091430490914404009723
:101CB00031F04AE050E060E070E00C94947760E02E
:101CC00070E0CB0108950E94430E97FD0CC00E9466
:101CD000430E6F3F71058105910509F034F40E94B0
:101CE000430E862F089580E008958FEF0895809128
:101CF000430490914404892B39F00E94630E91E0D3
:101D0000811103C090E001C091E0892F089527E17F
:101D100034E043E154E06FE074E08BE094E00C9435
:101D20005D412F923F924F925F926F927F929F926E
:101D3000AF92BF92CF92DF92EF92FF920F931F93D9
:101D4000CF93DF93CDB7DEB728970FB6F894DEBFF9
:101D50000FBECDBF2A013B01902EA12E6901082F95
:101D600010E0F801EA52F84FE491BB24B3941E1638
:101D70000CF4B12CFF24F39420E030E0A901C3015E
:101D8000B2010E94537318160CF0F12C000F111FB2
:101D9000000F111FC801855F9B4F1C01FC011082C1
:101DA0001182128213820E94870EF10140825182B9
:101DB00062827382E0902F0220E030E0A901692D59
:101DC0007A2DC6010E943171811108C0F801EB5EC5
:101DD000F74F85919591A591B49103C0892D9A2DC6
:101DE000D6018D839E83AF83B88719821A821B82A6
:101DF0001C82CE0101966C018E010B5F1F4F27E103
:101E000034E043E154E06FE074E08BE094E00E9442
:101E10001C4D0E94F340BF100E94593728960FB600
:101E2000F894DEBF0FBECDBFDF91CF911F910F9110
:101E3000FF90EF90DF90CF90BF90AF909F907F90FA
:101E40006F905F904F903F902F90089567E174E0FE
:101E500083E00C940D42CF93DF9300D0CDB7DEB773
:101E60002091360B3091370BCE01019621153105AB
:101E700029F48C539B409A83898304C0821B930B63
:101E80009A83898389819A810F900F90DF91CF91F6
:101E90000895FF920F931F93CF93DF93FC0120814E
:101EA0002B3319F1D091F003D430F8F4F62EBC01A5
:101EB000C091EE030C2F10E0F0E6CF9FC00111247B
:101EC00082599D4F0E943779F801EE5EFD4FF082F6
:101ED000CF5FC43018F4C093EE0302C01092EE033B
:101EE000DF5FD093F00381E001C080E0DF91CF910C
:101EF0001F910F91FF9008950F931F93CF93DF933E
:101F000094E0899FE00111248E01025C1D4FFE01C7
:101F1000E65BFD4FDE01AA5ABD4F2D913D914D91DB
:101F20005C9160817181828193810E943C70F80193
:101F30006083718382839383FE01E75FF74F85910E
:101F40009591A591B491FE01EE5CFD4F8083918344
:101F5000A283B383FE01E350F84F85919591A5913B
:101F6000B491C35FDE4F88839983AA83BB83DF91DB
:101F7000CF911F910F910895CF92DF92EF920F931F
:101F80001F93CF93DF9300D000D0CDB7DEB7E090A2
:101F90002F0219821A821B821C82CE0101966C01CB
:101FA0000BE111E027E134E043E154E06FE074E03D
:101FB0008BE094E00E941C4D0F900F900F900F90BB
:101FC000DF91CF911F910F91EF90DF90CF90089507
:101FD0004F925F926F927F928F929F92AF92BF9239
:101FE000CF92DF92EF92FF920F931F93CF93DF93E5
:101FF000CDB7DEB72C970FB6F894DEBF0FBECDBFBE
:102000006D837E838F83988729873A874B875C8788
:1020100047015801360180911B0190911C01A0914C
:102020001D01B0911E0189839A83AB83BC83D601C5
:10203000CD90DD90ED90FC9020E030E0A901C7014B
:10204000B6010E943171811106C0EDE1F8E0C59042
:10205000D590E590F490A5019401609113047091DE
:10206000140480911504909116040E94317187FF29
:1020700012C0C0921B01D0921C01E0921D01F0928F
:102080001E018092130490921404A0921504B09241
:1020900016040E94BC0FF30140805180628073805F
:1020A00020E030E0A901C301B2010E943171811129
:1020B00007C085E5482E542C85E0682E83E4782EF1
:1020C00040921B0150921C0160921D0170921E01F2
:1020D0008D819E81AF81B88580930B0490930C0411
:1020E000A0930D04B0930E0489859A85AB85BC85B9
:1020F00080930F0490931004A0931104B0931204E2
:102100000E94BC0FA5019401609113047091140406
:1021100080911504909116040E945373181694F43C
:10212000C0921B01D0921C01E0921D01F0921E0191
:102130008092130490921404A0921504B092160495
:102140000E94BC0F0E94F34089819A81AB81BC81BF
:1021500080931B0190931C01A0931D01B0931E015D
:102160002C960FB6F894DEBF0FBECDBFDF91CF9196
:102170001F910F91FF90EF90DF90CF90BF90AF90A5
:102180009F908F907F906F905F904F900895CF9227
:10219000DF92EF92FF920F931F936B01FC01E0809F
:1021A000F18002811381EBE0F4E0248135814681E6
:1021B000578160817181828193810E94E80F1F9114
:1021C0000F91FF90EF90DF90CF90089580911B01C9
:1021D00090911C01A0911D01B0911E018093680295
:1021E00090936902A0936A02B0936B0280911901E7
:1021F00090911A01909367028093660284E690E0C2
:1022000090931A018093190108958091680290912A
:102210006902A0916A02B0916B0280931B019093B6
:102220001C01A0931D01B0931E0180916602909144
:10223000670290931A01809319010895AF92BF929B
:10224000CF92DF92EF92FF920F931F93CF93DF9382
:1022500086E8A82E81E0B82E9BEFE92E93E0F92EB8
:102260000BE014E02EE3C22E22E0D22EC0E0D0E03C
:10227000F50181915F010E94B40D882321F10E9434
:102280000C0EFE01EE59FD4F2081211104C020915A
:102290002E02222341F0F8012081318142815381B5
:1022A0000E943C700AC0C330D10539F0F60120818C
:1022B0003181428153810E943B70F70160837183B9
:1022C000828393830AC0F80180819181A281B381C6
:1022D000F70180839183A283B3832196F4E0EF0E0C
:1022E000F11C0C5F1F4F84E0C80ED11CC430D10517
:1022F00009F0BECF86E40E94FF0D8823C9F00E943A
:102300000C0E20E030E0A9010E945373181684F4EB
:102310000E940C0E20E030E040E752E40E943B7146
:1023200060931B0170931C0180931D0190931E010B
:10233000DF91CF911F910F91FF90EF90DF90CF90A1
:10234000BF90AF9008954F925F926F927F92AF923D
:10235000BF92CF92DF92EF92FF920F931F93CF9392
:1023600086E8A82E81E0B82E08EB14E0C0E0F50165
:1023700081915F010E94B40D882309F46DC0C330C0
:1023800009F063C00E940C0E6B017C0120E030E07C
:1023900040EA51E40E94317187FF4EC0A7019601C7
:1023A0006091C4047091C5048091C6049091C704E3
:1023B0000E943B712B013C019B01AC016091900498
:1023C0007091910480919204909193040E94937370
:1023D000609390047093910480939204909393047B
:1023E000A30192016091D4047091D5048091D60428
:1023F0009091D7040E9493736093D4047093D50492
:102400008093D6049093D7046091E8047091E90416
:102410008091EA049091EB040E94E371A301920180
:102420000E9493730E94B4716093E8047093E9046E
:102430008093EA049093EB04C092C404D092C50444
:10244000E092C604F092C70407C00E940C0EF80187
:102450006083718382839383CF5F0C5F1F4FC4308F
:1024600009F085CFCF911F910F91FF90EF90DF90F2
:10247000CF90BF90AF907F906F905F904F900C94F3
:10248000CF420F931F93CF93DF93CBE0D4E00EE3C3
:1024900012E0F80120813181428153816881798184
:1024A0008A819B810E943C70AB01BC0182E396E073
:1024B0000E941A4EF80124813581468157816C8132
:1024C0007D818E819F810E943C70AB01BC018EE2B8
:1024D00096E00E941A4EF801208531854285538589
:1024E000688579858A859B850E943C70AB01BC011B
:1024F0008AE296E00E941A4E4C855D856E857F8546
:1025000086E296E00E941A4EDF91CF911F910F91C3
:102510000C9498564F925F926F927F928F929F92F7
:10252000AF92BF92CF92DF92EF92FF920F931F93E1
:10253000CF93DF9386E8C82E81E0D82E96E5E92E6A
:1025400092E0F92E00E010E0C0E0D0E0F6018191C9
:102550006F010E94FF0D882309F44DC00E940C0EEC
:102560004B015C01C33059F0F801E25CFD4F208162
:102570003181428153810E943B704B015C01F80123
:10258000E55FFB4F2081318142815381C501B40158
:102590000E943B702B013C012DEB37E346E855EBE5
:1025A0000E94537387FD0AC02DEB37E346E855E3DD
:1025B000C301B2010E9431711816ECF4C33051F41A
:1025C0008092170490921804A0921904B0921A04F1
:1025D000D1E011C0A3019201F70160817181828174
:1025E00093810E943C70F70160837183828393839F
:1025F0008C2F0E947C0FCF5FF4E0EF0EF11C0C5F7C
:102600001F4FC43009F0A2CFD1110E94260FDF91D5
:10261000CF911F910F91FF90EF90DF90CF90BF90DF
:10262000AF909F908F907F906F905F904F900C94A1
:10263000411281E50E94B40D882351F00E94530E8F
:102640006093D8047093D9048093DA049093DB04E8
:1026500083E50E94B40D882351F00E940C0E609314
:10266000A4047093A5048093A6049093A70484E522
:102670000E94B40D882351F00E940C0E60939404C4
:1026800070939504809396049093970488E50E9434
:10269000B40D882351F00E940C0E60938404709353
:1026A0008504809386049093870489E50E94B40D85
:1026B000882351F00E940C0E609388047093890463
:1026C00080938A0490938B048AE50E94B40D88233A
:1026D00051F00E940C0E60938C0470938D048093D3
:1026E0008E0490938F0485E40E94B40D882351F0EA
:1026F0000E940C0E60939004709391048093920456
:102700009093930408958F929F92AF92BF92EF920D
:10271000FF920F931F93CF93DF9300D000D0CDB7DC
:10272000DEB785E40E94FF0D882321F00E94430E4E
:102730008B0102C000E010E083E40E94FF0D8823BB
:1027400021F00E94430EF62E02C025E0F22E85E510
:102750000E94FF0D882321F00E94770EE82E04C00E
:1027600085E50E94B40DE82E17FD07C0812C912C41
:1027700096E1A92E93E4B92E06C0812C912C8CE809
:10278000A82E82E4B82E83E50E94FF0D882321F055
:102790000E940C0E4B015C01C501B4010E94AD7199
:1027A0000115110511F410922202072E000C880B5E
:1027B000990B0E94E57169837A838B839C832E2D0C
:1027C0004F2D602FCE0101960E9425610F900F9032
:1027D0000F900F90DF91CF911F910F91FF90EF908D
:1027E000BF90AF909F908F900895CF92DF92EF921D
:1027F000FF92CF93DF9320910C01222309F485C02F
:10280000EC01C0903202D0903302E0903402F0909C
:102810003502A7019601688179818A819B810E9496
:10282000317187FF04C0C882D982EA82FB82C090DE
:102830003602D0903702E0903802F0903902A701BA
:1028400096016C817D818E819F810E94317187FF0D
:1028500004C0CC82DD82EE82FF82C0900D01D09058
:102860000E01E0900F01F0901001A7019601688120
:1028700079818A819B810E945373181624F4C8823F
:10288000D982EA82FB82C0901101D0901201E090BF
:102890001301F0901401A70196016C817D818E8156
:1028A0009F810E945373181624F4CC82DD82EE823D
:1028B000FF82C0903A02D0903B02E0903C02F09040
:1028C0003D02A7019601688579858A859B850E94CE
:1028D000317187FF04C0C886D986EA86FB86C0901E
:1028E0001501D0901601E0901701F0901801A70192
:1028F0009601688579858A859B850E945373181691
:1029000024F4C886D986EA86FB86DF91CF91FF90B2
:10291000EF90DF90CF900895CF93DF9380E00E94F7
:10292000DF40C6E1D2E0688379838A839B8381E0BC
:102930000E94DF406C837D838E839F8382E00E94B0
:10294000DF40688779878A879B87DF91CF910895D9
:102950000E9490400E94F3400E948C140E94EA0C56
:102960000C94870E779876984798419842980895E6
:10297000429A089583E50E94FF0D882399F00E94F2
:102980000C0E20E030E04AE754E40E9493730E946A
:10299000B4716093070170930801809309019093CB
:1029A0000A01089588E50E94B40D811111C089E5DE
:1029B0000E94B40D81110CC08AE50E94B40D8111F2
:1029C00007C085E40E94B40D811102C00C94CE4072
:1029D0000E94F34088E50E94B40D882331F0779A75
:1029E0008091F9038E7F8093F90389E50E94B40DED
:1029F000882331F0769A8091F9038D7F8093F903D3
:102A00008AE50E94B40D882339F0479A419A809153
:102A1000F9038B7F8093F90385E40E94B40D811143
:102A20000C94B8140895779A8091F9038E7F80935F
:102A3000F903769A8091F9038D7F8093F903479A81
:102A4000419A8091F9038B7F8093F9030C94B81419
:102A50004F925F926F927F928F929F92AF92BF92AE
:102A6000DF92EF92FF920F931F93CF93DF93D82EB5
:102A7000C82FD0E0FE01EA52F84F64917E01EE0CBF
:102A8000FF1CEE0CFF1CF701EB51F84F45905590E1
:102A900065907490062E000C770B880B990B0E94A2
:102AA000E5714B015C0120E030E040EC5FE3C301E5
:102AB000B2010E949373A50194010E949373AB012C
:102AC000BC0100E010E098018D2D0E94910EF701ED
:102AD000E752F84F2591359145915491C501B401C4
:102AE0000E9493734B015C0120E030E0A9010E9439
:102AF0003171882309F44CC000E010E09801B50161
:102B0000A40170588D2D0E94910EFE01E35AF94FD9
:102B1000449141111BC0E7E3FBE06491EF01219672
:102B2000662331F089EC9AE00E943968FE01F5CF06
:102B3000EBE3F6E06491EF012196662331F089EC36
:102B40009AE00E943968FE01F5CF4AE0F701EB5E9A
:102B5000F74F4590559065907490642F70E080E039
:102B600090E00E94E5719B01AC01C301B2010E949B
:102B70003B712B013C01A5019401C501B4010E94E8
:102B80003C70AB01BC01930182018D2D0E94910E1E
:102B900081E090E00D2C01C0880F0A94EAF7909133
:102BA000F903982B9093F9039091FA03892B809362
:102BB000FA03F701EA5AFD4F108211821282138242
:102BC0008D2D0E947C0FF701EF50F84F8591959164
:102BD000A591B491E701C55FDB4F88839983AA83F0
:102BE000BB830E94870EF701E550FC4F88819981D5
:102BF000AA81BB8180839183A283B383DF91CF912C
:102C00001F910F91FF90EF90DF90BF90AF909F903A
:102C10008F907F906F905F904F9008958F929F92CA
:102C2000AF92BF92FF920F931F93CF93DF9300D089
:102C300000D0CDB7DEB7182F9091F9039770973079
:102C400079F48FE40E94FF0D882329F00E94770E0B
:102C5000882331F093C08FE40E94B40D81118EC09F
:102C60000E94F3400E94E61081E00E94513711114A
:102C700019C088E50E94B40DF82E89E50E94B40DB4
:102C8000082F8AE50E94B40DF11007C0011110C091
:102C900081110FC0F02E11E00CC0002349F0F02E7E
:102CA000182F07C0FF24F39401E081E011E001C078
:102CB00010E090E1EBE0F4E0ABEFB3E001900D92B7
:102CC0009A95E1F7111102C0882319F082E00E9461
:102CD000281582E50E94FF0D882361F00E940C0EEA
:102CE0004B015C0120E030E0A9010E943171882392
:102CF00071F106C0812C912C80EAA82E80E4B82EB8
:102D0000111104C0F11002C0002381F1809203046C
:102D100090920404A0920504B0920604209113043A
:102D2000309114044091150450911604C501B4016A
:102D30000E94537318165CF419821A821B821C823B
:102D4000BE016F5F7F4F83E094E00E94C7101111B6
:102D500005C0F11003C0011106C008C080E00E9448
:102D600028151123C1F381E00E9428150E94870EC7
:102D70000E9454370E9405110E9441120F900F903B
:102D80000F900F90DF91CF911F910F91FF90BF9007
:102D9000AF909F908F900895EF92FF920F931F93A3
:102DA000CF93DF93882329F0D091FA03D095D17087
:102DB00001C0D0E0662341F01091FA0311FB88278F
:102DC00080F911E0182701C010E0442341F0C091C0
:102DD000FA03C2FB882780F9C1E0C82701C0C0E020
:102DE000D11105C0111103C0CC2309F45DC0E7E384
:102DF000FBE064917F018FEFE81AF80A662331F057
:102E000089EC9AE00E943968F701F3CFEFEAF6E027
:102E100064917F018FEFE81AF80A662331F089EC9C
:102E20009AE00E943968F701F3CFDD2379F0EDEAEB
:102E3000F6E064917F018FEFE81AF80A662331F01B
:102E400089EC9AE00E943968F701F3CF112371F001
:102E5000EBEAF6E064918F010F5F1F4F662331F0BC
:102E600089EC9AE00E943968F801F4CFC11103C0DF
:102E7000E1EAF6E00DC0E9EAF6E06491EF0121969F
:102E80006623B1F389EC9AE00E943968FE01F5CF20
:102E90006491EF012196662331F089EC9AE00E945B
:102EA0003968FE01F5CFC1E08C2FDF91CF911F91E2
:102EB0000F91FF90EF900895CF92DF92EF92FF92E3
:102EC0000F931F93CF93DF930E943E666B017C01AB
:102ED00080912D02811174C080910601882309F42C
:102EE0006FC080911102882309F46AC040910D02DD
:102EF00050910E0260910F027091100297018601AD
:102F0000041B150B260B370B37FD6DC0833031F1D9
:102F100034F481300CF454C0E7E3FBE006C08430A5
:102F200009F04EC0E7E3FBE033C06491EF01219666
:102F3000662331F089EC9AE00E943968FE01F5CFF2
:102F4000EFE8F6E06491EF012196662309F438C0BA
:102F500089EC9AE00E943968FE01F4CFE7E3FBE0D8
:102F60006491EF012196662331F089EC9AE00E948A
:102F70003968FE01F5CFE8E7F6E06491EF012196AC
:102F80006623F1F089EC9AE00E943968FE01F5CFE2
:102F90006491EF012196662331F089EC9AE00E945A
:102FA0003968FE01F5CFE0E6F6E06491EF01219685
:102FB000662331F089EC9AE00E943968FE01F5CF72
:102FC0002091060130E0A8EEB3E00E94E074C60E46
:102FD000D71EE81EF91EC0920D02D0920E02E0929A
:102FE0000F02F0921002DF91CF911F910F91FF908D
:102FF000EF90DF90CF900895CF93DF93EDE3FBE068
:103000006491EF012196662331F089EC9AE00E94E9
:103010003968FE01F5CFE4E6F5E06491EF01219611
:10302000662331F089EC9AE00E943968FE01F5CF01
:10303000DF91CF9108950F931F93CF9383E50E9463
:10304000FF0D882309F441C00E94630E082F80E51C
:103050000E94FF0D8823C9F10E94630EC82F87FDCF
:1030600034C089E40E94FF0D882349F00E94770E46
:10307000811112C0E3E7F5E080E38E0F09C089E417
:103080000E94B40D811108C0F5CF31968E1721F042
:103090009491C913FACF14C061E08C2F0E94A467E9
:1030A000602F8C2F0E94E06710E0B8018C2F0E94E7
:1030B000E766CF3051F4109331020093300205C01F
:1030C000CF911F910F910C94FC17CF911F910F91ED
:1030D0000895CF93DF9383E50E94B40DC82F882312
:1030E00071F00E940C0E0E94AD71709343016093C9
:1030F000420121E0672B09F020E020938D0A80E552
:103100000E94B40D882359F020914201309143016F
:10311000232B11F00E94770E80938D0A31C0C111CC
:103120002FC0E7E3FBE06491EF012196662331F0C5
:1031300089EC9AE00E943968FE01F5CF80918D0AF2
:10314000811103C063E771E002C060E771E081ECC8
:1031500092E00E94C24D609142017091430180EB68
:1031600092E00E94DC4DECEAF2E06491EF012196DE
:10317000662331F089EC9AE00E943968FE01F5CFB0
:10318000DF91CF9108952F923F924F925F926F926D
:103190007F928F929F92AF92BF92CF92DF92EF92E7
:1031A000FF920F931F93CF93DF93CDB7DEB72F9787
:1031B0000FB6F894DEBF0FBECDBF41E061E081E005
:1031C0000E94CC168111BBC091EF892E97E0992EF9
:1031D0008BE094E09E878D87FE0131965F0106EDBE
:1031E00017E01F01F3E0F00FFF87F401659175917F
:1031F00085919491ED85FE85C190D190E190F190FB
:10320000FE87ED87A70196010E943B702B013C01D0
:1032100020E030E040EA51EC0E94537387FD10C07B
:1032200020E030E040EA51E4C301B2010E94317174
:10323000181634F0F10140825182628273820DC00F
:10324000F80184911816B4F7F7FAF094F7F8F094AF
:10325000F101C082D182E282F382F101C190D1906A
:10326000E190F1901F0120E030E040EA51ECC7010D
:10327000B6010E94537387FF03C0EDE3FBE00BC070
:1032800020E030E040EA51E4C701B6010E9431710C
:103290001816E4F4F2CF64918F010F5F1F4F66237D
:1032A00031F089EC9AE00E943968F801F4CFE2E34A
:1032B000F3E064918F010F5F1F4F662309F43FC055
:1032C00089EC9AE00E943968F801F3CFF4E08F0EA0
:1032D000911C0F5F1F4F8F85801387CF8AE4E82EE4
:1032E00082E0F82E10E0F50181919191A191B191C8
:1032F0005F01F70181939193A193B1937F01812F96
:103300000E947C0F1F5F133071F72F960FB6F89451
:10331000DEBF0FBECDBFDF91CF911F910F91FF9008
:10332000EF90DF90CF90BF90AF909F908F907F9065
:103330006F905F904F903F902F900C9441122F967A
:103340000FB6F894DEBF0FBECDBFDF91CF911F91B6
:103350000F91FF90EF90DF90CF90BF90AF909F9034
:103360008F907F906F905F904F903F902F90089537
:103370008F929F92AF92BF92CF92DF92EF92FF9285
:103380000F931F93CF93DF93CDB7DEB728970FB678
:10339000F894DEBF0FBECDBF8BEF93E00E94F51314
:1033A00080911B0483FDB1C0C0900704D090080435
:1033B000E0900904F0900A04209117043091180459
:1033C0004091190450911A04C701B6010E9431714D
:1033D000882309F49AC06091BB0A7091BC0A80915D
:1033E000BD0A9091BE0A20918D0A21112FC00E9422
:1033F000AD7120914201309143016217730734F59A
:10340000C0921704D0921804E0921904F0921A04A2
:10341000E7E3FBE064917F012FEFE21AF20A6623F3
:1034200031F089EC9AE00E943968F701F3CFE6E7C2
:10343000F2E064917F018FEFE81AF80A662331F019
:1034400089EC9AE00E943968F701F3CF8090070475
:1034500090900804A0900904B0900A0420911704E9
:10346000309118044091190450911A04C501B40117
:103470000E943B706B017C0120E030E0A9010E94BA
:10348000537387FF04C0C701B601905802C0C7013B
:10349000B601E0912F0224E0E29FF0011124E45DE7
:1034A000FE4F20813181428153810E94937320E03D
:1034B00030E048E453E40E945373181634F58092C8
:1034C000170490921804A0921904B0921A04E7E32A
:1034D000FBE064917F018FEFE81AF80A662331F070
:1034E00089EC9AE00E943968F701F3CFE7E5F2E052
:1034F00064917F019FEFE91AF90A662331F089ECA4
:103500009AE00E943968F701F3CF60911901709138
:103510001A01072E000C880B990B0E94E57120916F
:103520001B0130911C0140911D0150911E010E9410
:1035300093732AE037ED43E25CE30E9493736D835B
:103540007E838F839887E0902F0219821A821B82D4
:103550001C82CE0101966C018E010B5F1F4F27E08C
:1035600034E043E054E06FEF73E08BEF93E00E94B0
:103570001C4D80E1EBEFF3E0ABE0B4E001900D9285
:103580008A95E1F728960FB6F894DEBF0FBECDBF3F
:10359000DF91CF911F910F91FF90EF90DF90CF902F
:1035A000BF90AF909F908F900895EDE3FBE0649102
:1035B000EF012196662331F089EC9AE00E94396888
:1035C000FE01F5CFE4EFF1E06491EF01219666236F
:1035D00031F089EC9AE00E943968FE01F5CF0E9433
:1035E000925B0E9413152FEF8BE49DE121508040E8
:1035F0009040E1F700C00000F8942FEF84E39CE0D6
:10360000215080409040E1F700C000000E94925B92
:10361000A895FECFEF92FF921F93CF93DF937C018B
:1036200060E00E94490F182F8823E1F0E7E3FBE0F8
:103630006491EF012196662331F089EC9AE00E94B3
:103640003968FE01F5CFB70189EC97E00E94C24DC1
:1036500062E289EC9AE00E9439686AE089EC9AE0BB
:103660000E943968812FDF91CF911F91FF90EF90D9
:103670000895DF92EF92FF920F931F93CF93DF9302
:10368000CDB7DEB76E970FB6F894DEBF0FBECDBFD5
:1036900060916C0270916D026115710549F14DE107
:1036A00050E0CE0101967C010E94ED781E8EF7015C
:1036B0008F010E191F09D190DD2019F09AE0D9125F
:1036C000F7CFF701E00FF11F1082C7010E940A1B1C
:1036D000882371F0DD20A9F00F5F1F4F80916C02ED
:1036E00090916D02080F191F10936D0200936C02E8
:1036F00081E020916C0230916D02232B29F480E04F
:1037000003C000E010E0F0CF6E960FB6F894DEBF75
:103710000FBECDBFDF91CF911F910F91FF90EF9022
:10372000DF900895EF92FF920F931F93CF93DF9353
:103730007C0184E50E94FF0DD82F882381F10E942F
:10374000630EC82F18163CF5E7E3FBE064918F0188
:103750000F5F1F4F662331F089EC9AE00E943968B1
:10376000F801F4CF6DE489EC9AE00E9439684AE0F0
:1037700050E0B70189EC9AE00E94E5696C2FCC0F0C
:10378000770B85EB96E00E94DC4D6AE089EC9AE0CD
:103790000E94396808C080932202D0E004C0809162
:1037A0002F02809322028D2FDF91CF911F910F91D5
:1037B000FF90EF90089588E690E00E94921B81119F
:1037C00022C080911B0483FD1EC083E50E94FF0D73
:1037D0008823B9F00E940C0E0E94AD717093B80A54
:1037E0006093B70A80E00E94FC5A0E940C0E20E011
:1037F00030E04AEA52E40E943171181614F00E9437
:1038000025570C94F5420895CF9388EC90E00E94E0
:10381000921B811140C084E40E94B40D8823C1F141
:103820000E940C0EC1E020E030E0A9010E9431713D
:10383000811101C0C0E0C0934904CC2349F10E942A
:103840000C0EE091220224E0E29FF0011124E058E6
:10385000FB4F608371838283938320E030E0A90172
:10386000609180047091810480918204909183041E
:103870000E94317181110CC080E090E0A0EEBFE3A6
:103880008093800490938104A0938204B093830476
:10389000CF910C942B40CF910895CF93DF930E944A
:1038A0008C146BE589EC9AE00E943968C6E1D2E09D
:1038B000488159816A817B8122E030E089EC9AE07D
:1038C0000E94D06A4C815D816E817F8188E396E0A1
:1038D0000E941A4E488559856A857B8585E396E066
:1038E0000E941A4E6DE589EC9AE00E9439686AE000
:1038F00089EC9AE0DF91CF910C9439681F93CF93B4
:10390000DF93182FE7E3FBE06491EF012196662334
:1039100031F089EC9AE00E943968FE01F5CF64E548
:1039200089EC9AE00E9439684AE050E0612F89EC06
:103930009AE00E94DE6960E289EC9AE00E943968B0
:10394000E2E0F6E06491EF012196662331F089EC24
:103950009AE00E943968FE01F5CFDF91CF911F9167
:1039600008950F931F93CF93DF931F92CDB7DEB7C8
:1039700089830E94F3408981882339F00F90DF9179
:10398000CF911F910F910C947E1C10922F02E7E3B0
:10399000FBE064918F010F5F1F4F662331F089ECCC
:1039A0009AE00E943968F801F4CF60912F0270E02C
:1039B00084E196E00E94DC4D6AE089EC9AE00F9089
:1039C000DF91CF911F910F910C9439680F931F9342
:1039D000CF93DF93CDB7DEB769970FB6F894DEBF0C
:1039E0000FBECDBF0E946A576E8B7F8B888F998FD9
:1039F000BE016F5F7F4FCE0146960E94F40CE7E355
:103A0000FBE064918F010F5F1F4F662331F089EC5B
:103A10009AE00E943968F801F4CFBE016F5F7F4FD2
:103A20008FED95E00E94C24D6AE089EC9AE00E9419
:103A3000396869960FB6F894DEBF0FBECDBFDF912F
:103A4000CF911F910F910895DF92EF92FF920F9304
:103A50001F93CF93DF9383E50E94B40D882359F021
:103A600083E50E94FF0D882319F00E94630E01C0B8
:103A700080E080931B04E7E3FBE06491EF01219673
:103A8000662331F089EC9AE00E943968FE01F5CF97
:103A9000EDE5F5E06491EF012196662331F089ECC4
:103AA0009AE00E943968FE01F5CF80911B048823BB
:103AB000A9F183E5E82E85E0F82E00E010E020E093
:103AC00080911B0490E0002E02C0959587950A9482
:103AD000E2F780FF1AC0DD24D394D20E222329F00E
:103AE0006CE289EC9AE00E943968F7018591949123
:103AF000FC016491EC012196662331F089EC9AE097
:103B00000E943968CE01F4CF2D2D0F5F1F4FF2E0D8
:103B1000EF0EF11C0530110599F60DC0EFE4F5E04C
:103B20006491EF012196662331F089EC9AE00E94BE
:103B30003968FE01F5CF6AE089EC9AE0DF91CF9118
:103B40001F910F91FF90EF90DF900C943968CF9305
:103B5000DF9383E50E94FF0D882351F00E94630EDE
:103B60008D3308F08CE380930601DF91CF910895A7
:103B7000E7E3FBE06491EF012196662331F089ECE5
:103B80009AE00E943968FE01F5CF4091060150E0AD
:103B900060E070E089E195E00E943C4E6AE089ECCB
:103BA0009AE0DF91CF910C943968FF920F931F93A5
:103BB000CF93DF93F82E092F162FECE6F3E06491F4
:103BC000EF012196662331F089EC9AE00E94396872
:103BD000FE01F5CFEF2DF02F6491EF0121966623C2
:103BE00031F089EC9AE00E943968FE01F5CFEAE6EF
:103BF000F3E06491EF012196662331F089EC9AE0BD
:103C00000E943968FE01F5CF612F70E04AE050E074
:103C100089EC9AE00E94CA696AE089EC9AE0DF9137
:103C2000CF911F910F91FF900C943968CF93DF9340
:103C3000E0E5F4E06491EF012196662331F089EC30
:103C40009AE00E943968FE01F5CF60E080E494E0DC
:103C50000E94D51D60E089E394E00E94D51D61E0DB
:103C60008EE294E00E94D51D61E08EE194E00E9416
:103C7000D51D60E085E194E00E94D51D61E08BE0F8
:103C800094E00E94D51D60E081E094E00E94D51D83
:103C900060E089EF93E00E94D51D60E08BEE93E039
:103CA0000E94D51D60E08DED93E00E94D51D60E07F
:103CB0008EEC93E00E94D51D60E080EC93E00E94C2
:103CC000D51D60E08AEA93E00E94D51D60E089E995
:103CD00093E00E94D51D60E084E893E00E94D51D2A
:103CE00061E081E793E0DF91CF910C94D51DFF92C5
:103CF0000F931F93CF93DF93C0914504D091460457
:103D000083E0F12C40E08150D1F09881292F2B7F66
:103D10002134C9F729812133B1F7913421F0953449
:103D200021F441E002C0FF24F3949E012E5F3F4F37
:103D3000E9012F5F3F4F98819032D1F3E4CF4423C4
:103D400071F0E7E3FBE064918F010F5F1F4F662383
:103D500031F089EC9AE00E943968F801F4CFFF2035
:103D600071F0E6E6F3E064918F010F5F1F4F662369
:103D700031F089EC9AE00E943968F801F4CFBE0175
:103D800089EC9AE00E9421696AE089EC9AE0DF916F
:103D9000CF911F910F91FF900C943968CF9383E5D9
:103DA0000E94FF0D8823A1F00E940C0E6093A004D6
:103DB0007093A1048093A2049093A3046093980449
:103DC0007093990480939A0490939B04C0E001C07F
:103DD000C1E080E50E94FF0D882359F00E940C0E7F
:103DE0006093A0047093A1048093A2049093A30411
:103DF000C0E082E50E94FF0D882359F00E940C0E5E
:103E000060939C0470939D0480939E0490939F0400
:103E1000C0E084E50E94FF0D882359F00E940C0E3B
:103E2000609398047093990480939A0490939B04F0
:103E30002CC0CC2351F14091A0045091A104609179
:103E4000A2047091A30486E593E00E941A4E40916B
:103E50009C0450919D0460919E0470919F0483E5A1
:103E600093E00E941A4E40919804509199046091F9
:103E70009A0470919B0480E593E00E941A4E6AE0D8
:103E800089EC9AE0CF910C943968CF910895CF9343
:103E9000DF93E7E3FBE06491EF012196662331F0C5
:103EA00089EC9AE00E943968FE01F5CF83E50E9413
:103EB000B40D882321F00E94770E80930C01E2E27A
:103EC000F3E06491EF012196662331F089EC9AE0EA
:103ED0000E943968FE01F5CF80910C01811103C069
:103EE000EAE1F3E002C0EEE1F3E06491EF01219634
:103EF000662331F089EC9AE00E943968FE01F5CF23
:103F0000E2E1F3E06491EF012196662331F089EC60
:103F10009AE00E943968FE01F5CF20913E0230916F
:103F20003F024091400250914102609132027091F3
:103F3000330280913402909135020E943C70AB01B3
:103F4000BC0180E193E00E941A4E20914202309120
:103F500043024091440250914502609136027091B3
:103F6000370280913802909139020E943C70AB0177
:103F7000BC018DE093E00E941A4E209146023091E0
:103F80004702409148025091490260913A02709173
:103F90003B0280913C0290913D020E943C70AB013B
:103FA000BC018AE093E00E941A4EE2E0F3E06491E3
:103FB000EF012196662331F089EC9AE00E9439687E
:103FC000FE01F5CF20913E0230913F024091400228
:103FD0005091410260910D0170910E0180910F018D
:103FE000909110010E943C70AB01BC0180E093E015
:103FF0000E941A4E209142023091430240914402A5
:10400000509145026091110170911201809113014C
:10401000909114010E943C70AB01BC018DEF92E0C5
:104020000E941A4E20914602309147024091480268
:10403000509149026091150170911601809117010C
:10404000909118010E943C70AB01BC018AEF92E094
:104050000E941A4E6AE089EC9AE0DF91CF910C94AD
:1040600039680F931F93CF93DF938DED90E00E94FB
:10407000921B811170C083E50E94FF0D8823B9F166
:10408000C0912202D0E00E94430ECC0FDD1FC05D24
:10409000DE4F798368838091220290E0EC01CC0F9F
:1040A000DD1FCC0FDD1F8E01045D1E4F880F991F91
:1040B000FC01E05DFE4F60817181072E000C880BD2
:1040C000990B0E94E5712AE037ED43E25CE30E9420
:1040D0009373C458DB4F288139814A815B810E94E8
:1040E0009373F801608371838283938334C0E7E321
:1040F000FBE06491EF012196662331F089EC9AE0B0
:104100000E943968FE01F5CF65E489EC9AE00E94CF
:10411000396860912202605D89EC9AE00E943968FA
:10412000E0912202F0E0EE0FFF1FE05DFE4F6081A4
:10413000718182EF92E00E94DC4D65E289EC9AE0A9
:104140000E9439686AE089EC9AE0DF91CF911F9173
:104150000F910C943968DF91CF911F910F910895C1
:10416000CF93DF9385E40E94FF0D811110C080E59D
:104170000E94B40D882391F00E940C0E60939C0A5B
:1041800070939D0A80939E0A90939F0A07C00E9495
:10419000630E882361F3EDE3FBE072C089E40E94C3
:1041A000B40D882381F00E940C0E2CEA35EC47E216
:1041B0005EE30E9493736093980A7093990A8093C8
:1041C0009A0A90939B0A84E40E94B40D882381F09C
:1041D0000E940C0E2CEA35EC47E25EE30E943B7134
:1041E0006093940A7093950A8093960A9093970A25
:1041F000E7E3FBE06491EF012196662331F089EC5F
:104200009AE00E943968FE01F5CF40919C0A5091D6
:104210009D0A60919E0A70919F0A8EEE92E00E9424
:104220001A4E2CEA35EC47E25EE36091980A7091F1
:10423000990A80919A0A90919B0A0E943B71AB0166
:10424000BC018AEE92E00E941A4E2CEA35EC47E25D
:104250005EE36091940A7091950A8091960A90911C
:10426000970A0E949373AB01BC0186EE92E00E9414
:104270001A4E6AE089EC9AE0DF91CF910C9439688C
:104280006491EF012196662331F089EC9AE00E9457
:104290003968FE01F5CFE4EDF2E06491EF0121967B
:1042A000662331F089EC9AE00E943968FE01F5CF6F
:1042B000DF91CF910895CF93DF93E091EF03F0E08A
:1042C000EE5EFD4F80818823A1F0E1E9F2E0649188
:1042D000EF012196662331F089EC9AE00E9439685B
:1042E000FE01F5CF6AE089EC9AE0DF91CF910C9462
:1042F0003968DF91CF9108950F931F93CF93DF9388
:1043000040E950ED63E070E089EC9AE00E94F168CA
:10431000EDEEF1E06491EF012196662331F089EC36
:104320009AE00E943968FE01F5CFE7E3FBE0649173
:10433000EF012196662331F089EC9AE00E943968FA
:10434000FE01F5CFC4B7C0FF0EC0E4EEF1E064910A
:104350008F010F5F1F4F662331F089EC9AE00E94B6
:104360003968F801F4CFC1FF0EC0E3EDF1E06491CC
:104370008F010F5F1F4F662331F089EC9AE00E9496
:104380003968F801F4CFC2FF0EC0E1ECF1E06491AE
:104390008F010F5F1F4F662331F089EC9AE00E9476
:1043A0003968F801F4CFC3FF0EC0E0EBF1E064918F
:1043B0008F010F5F1F4F662331F089EC9AE00E9456
:1043C0003968F801F4CFC5FF0DC0EFE9F1E0649161
:1043D000EF012196662331F089EC9AE00E9439685A
:1043E000FE01F5CF14BEE8E9F1E06491EF012196FA
:1043F000662331F089EC9AE00E943968FE01F5CF1E
:1044000060E289EC9AE00E943968E1E9F1E06491A8
:10441000EF012196662331F089EC9AE00E94396819
:10442000FE01F5CF6AE089EC9AE00E943968E7E383
:10443000FBE06491EF012196662331F089EC9AE06C
:104440000E943968FE01F5CFE1E8F1E06491EF01E7
:104450002196662331F089EC9AE00E943968FE01CA
:10446000F5CFE6E7F1E06491EF012196662331F0A4
:1044700089EC9AE00E943968FE01F5CFEDE4F1E0A5
:104480006491EF012196662331F089EC9AE00E9455
:104490003968FE01F5CFE7E3FBE06491EF01219677
:1044A000662331F089EC9AE00E943968FE01F5CF6D
:1044B000E6E3F1E06491EF012196662331F089ECA7
:1044C0009AE00E943968FE01F5CFE7E3FBE06491D2
:1044D000EF012196662331F089EC9AE00E94396859
:1044E000FE01F5CF0E942B0FBC0187E291E00E94F4
:1044F000DC4D60ED74E080E191E00E94DC4D6AE00B
:1045000089EC9AE00E94396881E0809312028093DE
:10451000130280931402809315020E94B73280E048
:104520000E94B1338CE0EAE4F2E0ABE0B4E0019049
:104530000D928A95E1F70E94870E8FEB9AE00E9418
:104540006F5A0E944F570E9441370E940551DF91D8
:10455000CF911F910F910C94E965CF93DF9389EC74
:104560009AE00E946068E4E9F2E06491EF0121962C
:10457000662331F089EC9AE00E943968FE01F5CF9C
:104580004091F1035091F2036091F3037091F403B1
:104590004F5F5F4F6F4F7F4F2AE030E089EC9AE02A
:1045A0000E9480696AE089EC9AE00E943968DF9194
:1045B000CF910C945B21FF920F931F93CF93DF93C6
:1045C000F82E092F162FEDE3FBE06491EF01219601
:1045D000662331F089EC9AE00E943968FE01F5CF3C
:1045E000EF2DF02F6491EF012196662331F089ECD5
:1045F0009AE00E943968FE01F5CF4091F103509195
:10460000F2036091F3037091F4032AE030E089EC47
:104610009AE00E9480696AE089EC9AE00E94396819
:1046200011110E94AD2210922C0210922B02DF91E8
:10463000CF911F910F91FF900895CF92DF92EF924B
:10464000FF920F931F93CF93DF938091F0038430F9
:1046500008F02DC189EC9AE00E947368AC0197FDC7
:1046600026C1982F20912B0230912C028A3019F00C
:104670009D3009F0E8C010920C022115310519F4A3
:104680000E94FA5EE2CFF901E455FE4F10821092CB
:104690002C0210922B022CEA31E0E90188812F5F75
:1046A0003F4F8032D1F37E018E3409F084C02097D1
:1046B00009F481C064EC77E0CE010E94FC7811E03F
:1046C000892B11F410E009C06EE470E0CE0104966D
:1046D0000E942379009709F07C014AE050E060E0F5
:1046E00070E0C70101960E9469766093F5037093AC
:1046F000F6038093F7039093F803C090F103D090F2
:10470000F203E090F303F090F4032FEFC21AD20A01
:10471000E20AF20A6C157D058E059F0531F0111134
:1047200004C061E081E997E02CC06AE270E0CE014C
:104730000E943E799C01009709F1982F9C1B10E084
:10474000992339F09150FE01E90FF11D808118275E
:10475000F7CF4AE050E060E070E0C90101960E94A6
:104760006976012F10E020E030E0601771078207C2
:10477000930789F061E082E797E003C061E088E495
:1047800097E0DF91CF911F910F91FF90EF90DF9015
:10479000CF900C94DB228091F5039091F603A091C9
:1047A000F703B091F8038093F1039093F203A09381
:1047B000F303B093F40380911F01811121C067E4DA
:1047C00070E0CE010E9423790097D1F04AE050E0DA
:1047D00060E070E001960E946976643071058105A1
:1047E000910570F4E1EDF6E064918F010F5F1F4FCA
:1047F000662331F089EC9AE00E943968F801F4CF21
:1048000067E771E0CE010E942E79892B11F4109296
:104810000B016CE771E0CE010E942E79892B21F407
:1048200088EC96E00E94D51A61E871E0CE010E9402
:104830002E79892B11F40E94A81461E08CEA91E092
:104840000E94490F02CF2F3531050CF0FECE9C356A
:10485000D1F489EC9AE00E94736897FDF6CE20911E
:104860000C022111F2CE20912B0230912C02A901D1
:104870004F5F5F4F50932C0240932B02F901E45598
:10488000FE4F8083E2CE9B3319F481E080930C02CB
:1048900080910C028111D9CEC901019690932C020E
:1048A00080932B02F901E455FE4F4083CECEDF9179
:1048B000CF911F910F91FF90EF90DF90CF900895CF
:1048C0000E94391B811102C00C941D230895CF92C0
:1048D000DF92EF92FF920F931F93CF93DF93C82F36
:1048E0008091F003843010F40E9460240E943E66A0
:1048F000C0902302D0902402E0902502F09026027E
:10490000C114D104E104F10491F100912702109146
:1049100028022091290230912A020C0D1D1D2E1D06
:104920003F1D6B017C01C01AD10AE20AF30AF7FCB1
:104930001EC0EDE3FBE06491EF012196662331F0A8
:1049400089EC9AE00E943968FE01F5CF6091470436
:10495000709148048DE192E00E94C24D6AE089ECBA
:104960009AE00E94396884E192E00E94D51AC090D2
:104970000701D0900801E0900901F0900A01C114EC
:10498000D104E104F104D1F1309102052091FF043A
:10499000321749F06093270270932802809329020E
:1049A00090932A022BC0C11129C0009127021091B7
:1049B00028022091290230912A020C0D1D1D2E1D66
:1049C0003F1DDC01CB01801B910BA20BB30BB7FD8C
:1049D00015C0779A8091F9038E7F8093F903769AB8
:1049E0008091F9038D7F8093F903479A419A8091D2
:1049F000F9038B7F8093F9030E94B814DF91CF9164
:104A00001F910F91FF90EF90DF90CF900C940B408F
:104A10000E945C1780E00E9467240E94FA5E8091E9
:104A20002D02811102C00C9482650895CF92DF920D
:104A3000EF92FF926B017C010E943E66C60ED71E6C
:104A4000E81EF91E0E943E66DC01CB018C199D090F
:104A5000AE09BF09B7FF03C00E940825F3CFFF903E
:104A6000EF90DF90CF9008952F923F924F925F92F8
:104A70006F927F928F929F92AF92BF92CF92DF926E
:104A8000EF92FF920F931F93CF93DF93CDB7DEB7D3
:104A900063970FB6F894DEBF0FBECDBF8DE690E0F2
:104AA0000E94921B811172C180911B0483FD6EC113
:104AB00083E50E94FF0D8887811105C082E50E9471
:104AC000FF0D8823C9F00E940C0E0E94AD717093F7
:104AD000B80A6093B70A80E00E94FC5A0E940C0E4C
:104AE00020E030E04AEA52E40E94317118160CF4DA
:104AF00049C10E94255781E0898B0E94F54289892E
:104B0000882309F443C181E080930B011A821B8240
:104B10001C821D8219861A861B861C8619821D8698
:104B20002CE32E873CE13F8746E4488BC12CD12CF7
:104B300080E8E82E9FEBF92E812C912C5401609196
:104B4000B70A7091B80A072E000C880B990B0E94C7
:104B5000E5716A8B7B8B182F092F9B01482F592FEA
:104B6000B601C7010E9431718823D1F02091BB0AA0
:104B70003091BC0A4091BD0A5091BE0A6A897B8976
:104B8000812F902F0E943171881F8827881F898369
:104B90005885552349F0882339F080910B01F6C0E0
:104BA000CA8ADB8A1E2D0F2D0E943E666B017C0196
:104BB000DC01CB0129853A854B855C85821B930BF3
:104BC000A40BB50BB7FD45C0D701C60188519C4F5A
:104BD000AF4FBF4F89879A87AB87BC870E94996088
:104BE000E2E1F5E064913F019FEF691A790A6623DB
:104BF00031F089EC9AE00E943968F301F3CF811417
:104C00009104A104B104D9F0D501C401805F984D8D
:104C1000AF4FBF4FBC01CD016C197D098E099F09B3
:104C200028EE33E040E050E00E949674BA01A901FA
:104C30002AE030E089EC9AE00E94806905C06FE3C9
:104C400089EC9AE00E9439686AE089EC9AE00E9457
:104C500039680E9408250E943E666093270270937F
:104C600028028093290290932A02A091BB0AAE8366
:104C7000B091BC0ABF832090BD0A3090BE0A9D014E
:104C8000A1016A897B89812F902F0E943B702B01A3
:104C90003C0120E030E0A9010E94537387FF04C06B
:104CA000C301B201905802C0C301B2018114910442
:104CB000A104B10449F420E030E040E85FE30E9441
:104CC000317187FF0BC008C020E030E040E450E4C1
:104CD0000E945373181614F44601570129812223A8
:104CE000A9F18A819B81AC81BD81892B8A2B8B2B79
:104CF00061F0D701C6012A813B814C815D81821B15
:104D0000930BA40BB50BB7FD21C02E813F81A101F0
:104D10006D857E858F8598890E943B7020E030E00C
:104D200040EC5FE30E94317187FD37CFD701C601A8
:104D3000805A9541AF4FBF4F8A839B83AC83BD831D
:104D40009E819D87AF81AE872F86388A80910B0127
:104D5000882309F422CF81149104A104B10429F419
:104D6000CA88DB88E12EF02EEACEB0E1CB1AB7E29A
:104D7000DB0AE108F108C818D908EA08FB08F7FEC1
:104D80000CCFEECF0E949E5781E0B6CE63960FB651
:104D9000F894DEBF0FBECDBFDF91CF911F910F9171
:104DA000FF90EF90DF90CF90BF90AF909F908F904B
:104DB0007F906F905F904F903F902F9008952F922B
:104DC0003F924F925F926F927F928F929F92AF929B
:104DD000BF92CF92DF92EF92FF920F931F93CF93E8
:104DE000DF93CDB7DEB762970FB6F894DEBF0FBE84
:104DF000CDBF80911B0483FD69C183E50E94FF0D37
:104E00008887811106C082E50E94FF0D882309F47E
:104E10005DC10E940C0E0E94AD71663971050CF0E7
:104E200052C17093B00A6093AF0A0E94475B0E9420
:104E30000C0E20E030E040EA50E40E945373181654
:104E400014F40E949E5781E080930B0180912F0201
:104E5000809322021A821B821C821D8219861A8666
:104E60001B861C8619821D862CE32E873CE13F871A
:104E700046E4488BC12CD12C80E8E82E9FEBF92E1C
:104E8000812C912C54016091AF0A7091B00A072EC9
:104E9000000C880B990B0E94E571698B7A8B182F97
:104EA000092F9B01482F592FB601C7010E9431716C
:104EB0008823D1F02091B30A3091B40A4091B50A09
:104EC0005091B60A69897A89812F902F0E94317199
:104ED000881F8827881F89835885552349F0882390
:104EE00039F080910B01F2C0C98ADA8A1E2D0F2D8C
:104EF0000E943E666B017C01DC01CB0129853A856D
:104F00004B855C85821B930BA40BB50BB7FD45C08D
:104F1000D701C60188519C4FAF4FBF4F89879A87F1
:104F2000AB87BC870E949960EEE0F5E064913F0199
:104F30009FEF691A790A662331F089EC9AE00E94A2
:104F40003968F301F3CF81149104A104B104D9F0BD
:104F5000D501C401805F984DAF4FBF4FBC01CD015B
:104F60006C197D098E099F0928EE33E040E050E07E
:104F70000E949674BA01A9012AE030E089EC9AE017
:104F80000E94806905C06FE389EC9AE00E9439684D
:104F90006AE089EC9AE00E9439680E9408250E9424
:104FA0003E666093270270932802809329029093B3
:104FB0002A02A091B30AAE83B091B40ABF832090B5
:104FC000B50A3090B60A9D01A10169897A89812FBD
:104FD000902F0E943B702B013C0120E030E0A901A2
:104FE0000E94537387FF04C0C301B201905802C0EE
:104FF000C301B20181149104A104B10449F420E079
:1050000030E040E85FE30E94317187FF0BC008C0C9
:1050100020E030E040E450E40E945373181614F48A
:1050200046015701E981EE2391F12A813B814C81B0
:105030005D81211531054105510541F0D701C601BA
:10504000821B930BA40BB50BB7FD21C02E813F81B2
:10505000A1016D857E858F8598890E943B7020E037
:1050600030E040EC5FE30E94317187FD3ACFD70119
:10507000C601805A9541AF4FBF4F8A839B83AC8353
:10508000BD839E819D87AF81AE872F86388A8091B0
:105090000B01882309F425CF81149104A104B104E4
:1050A00029F4C988DA88E12EF02EEDCEB0E1CB1AD2
:1050B000B7E2DB0AE108F108C818D908EA08FB08DA
:1050C000F7FE0FCFEECF66E970E0ABCE62960FB67B
:1050D000F894DEBF0FBECDBFDF91CF911F910F912E
:1050E000FF90EF90DF90CF90BF90AF909F908F9008
:1050F0007F906F905F904F903F902F900895CF9248
:10510000DF92EF92FF921F93CF93DF9380E50E948F
:10511000B40D882309F451C00E94430E6B017C0139
:1051200083E50E94FF0D882321F00E94430EEB01CE
:1051300002C0CFEFDFEFCE010196039708F03DC02C
:10514000D7FC3BC09C2DE3E7F5E080E38E0F249174
:10515000921721F031968E13FACF09C0DF91CF91CB
:105160001F91FF90EF90DF90CF900C94FC170E945E
:10517000F3401C2D60E08C2D0E94A467CF3F8FEF81
:10518000D80759F48C2D0E94106831E020E0892B5B
:1051900009F030E0C32FD22F04C0219759F0C0E0AE
:1051A000D0E0812F0E9410688C179D0731F00E947B
:1051B0000825F7CFC1E0D0E0F4CFDF91CF911F9168
:1051C000FF90EF90DF90CF9008952F923F924F92F3
:1051D0005F926F927F928F929F92AF92BF92CF9287
:1051E000DF92EF92FF920F931F93CF93DF93CDB790
:1051F000DEB7C255D1090FB6F894DEBF0FBECDBFE2
:105200001C017AAF69AF142FDB018D909D90AD909A
:10521000BC901397A501940150582DA33EA34FA312
:1052200058A71496CD90DD90ED90FC901797D7017C
:10523000C601B0588D8F9E8FAF8FB8A3CA01B90138
:105240000E9493732B013C012D8D3E8D4F8D58A1F3
:10525000CA01B9010E9493739B01AC01C301B20161
:105260000E943C700E940E746BAF7CAF8DAF9EAFFE
:1052700020910B0430910C0440910D0450910E04C8
:1052800029A73AA74BA75CA7A501940169A57AA510
:105290008BA59CA50E943C7027966CAF7DAF8EAF0E
:1052A0009FAF279780910F0490911004A091110453
:1052B000B09112048DA79EA7AFA7B8ABA701960126
:1052C000BC01CD010E943C702B966CAF7DAF8EAFC0
:1052D0009FAF2B97D1012D913D914D915C9129ABC1
:1052E0003AAB4BAB5CAB27962CAD3DAD4EAD5FAD55
:1052F000279769A97AA98BA99CA90E943B706B0189
:105300007C01D10114962D913D914D915C9117979F
:105310002DAB3EAB4FAB58AF2B962CAD3DAD4EAD4C
:105320005FAD2B976DA97EA98FA998AD0E943B70A8
:105330004B015C0120911304309114044091150439
:10534000509116042F962CAF3DAF4EAF5FAF2F9705
:10535000D10118966D917D918D919C911B970E9422
:105360003B7069A37AA38BA39CA3D1011C962D91BA
:105370003D914D915C911F9723962CAF3DAF4EAF61
:105380005FAF2397209117043091180440911904BE
:1053900050911A0463962CAF3DAF4EAF5FAF639749
:1053A000A70196016DA17EA18FA198A50E9493737C
:1053B0002B013C01A50194016D8D7E8D8F8D98A1EF
:1053C0000E9493739B01AC01C301B2010E943C7027
:1053D0002B013C01A50194016DA17EA18FA198A58F
:1053E0000E9493734B015C01A70196016D8D7E8D28
:1053F0008F8D98A10E9493739B01AC01C501B401EC
:105400000E943B70A30192010E94BB706B017C0162
:1054100020E030E0A9010E94317187FF0AC02BED26
:105420003FE049EC50E4C701B6010E943C706B01BB
:105430007C01112351F02BED3FE049EC50E4C70112
:10544000B6010E943B706B017C0120E030E0A901B5
:10545000C701B6010E943171811120C029A93AA962
:105460004BA95CA969A57AA58BA59CA50E94317161
:10547000811114C02DA93EA94FA958AD6DA57EA5D7
:105480008FA598A90E943171811108C08BEDC82E9B
:105490008FE0D82E89ECE82E80E4F82EA701960143
:1054A0006BAD7CAD8DAD9EAD0E9493734B015C01E5
:1054B00020E030E0A90169A17AA18BA19CA10E9402
:1054C00031718823D9F0A5019401C501B4010E946E
:1054D00093734B015C0129A13AA14BA15CA1CA01C4
:1054E000B9010E9493739B01AC01C501B4010E94F4
:1054F0003C700E940E744B015C010DC020E030E056
:10550000A901C501B4010E94537387FF04C0B7FA13
:10551000B094B7F8B0942FE632E143E85AE3C501FE
:10552000B4010E94317187FDFAC1C501B4010E9426
:1055300020720E94B4717AA769A7672B21F481E0D9
:1055400090E09AA789A7A9A5BAA5BD0180E090E03F
:105550000E94E3714B015C019B01AC01C701B601E4
:105560000E943B712B013C01A501940169A17AA124
:105570008BA19CA10E943B716BAF7CAF8DAF9EAFA6
:1055800063962CAD3DAD4EAD5FAD639723966CAD8C
:105590007DAD8EAD9FAD23970E943B70A501940118
:1055A0000E943B7123966CAF7DAF8EAF9FAF239768
:1055B000A3019201C301B2010E94937320E030E085
:1055C00040E05FE30E9493739B01AC0160E070E0F8
:1055D00080E89FE30E943B706DAB7EAB8FAB98AFD2
:1055E0002F962CAD3DAD4EAD5FAD2F9729873A87F5
:1055F0004B875C8763968CAD9DADAEADBFAD6397B9
:105600008D879E87AF87B88B6091190170911A01C1
:10561000072E000C880B990B0E94E57120911B014D
:1056200030911C0140911D0150911E010E94937305
:105630002AE037ED43E25CE30E949373698F7A8F2F
:105640008B8F9C8F0E943E669B01AC0128533F4F7D
:105650004F4F5F4F29AB3AAB4BAB5CAB41E050E0F7
:105660005EA74DA759E159A3EDA5FEA529A53AA529
:10567000E217F30709F42CC10E94FA5E0E943E660D
:10568000DC01CB0129A93AA94BA95CA9821B930B88
:10569000A40BB50BB7FD0EC00E943E669B01AC018A
:1056A00028533F4F4F4F5F4F29AB3AAB4BAB5CABEF
:1056B0000E94082539A1315039A3332309F43FC092
:1056C0002DA93EA94FA958AD6D8D7E8D8F8D98A1C6
:1056D0000E9493736B017C01A30192016DA17EA1D5
:1056E0008FA198A50E949373A70196010E943C7018
:1056F0006B017C012DA93EA94FA958AD6DA17EA1DA
:105700008FA198A50E9493734B015C01A3019201A4
:105710006D8D7E8D8F8D98A10E9493739B01AC013E
:10572000C501B4010E943B706DA37EA38FA398A70F
:10573000C601D7018D8F9E8FAF8FB8A36CC04DA5CA
:105740005EA5BA0180E090E00E94E371A30192019E
:105750000E9493736B017C010E9436716D8F7E8F66
:105760008F8F98A3C701B6010E9400744B015C01A2
:10577000A9ADBAADCD90DD90ED90FC901397F7FAFE
:10578000F094F7F8F09414962D913D914D915C9121
:10579000179729A33AA34BA35CA32D8D3E8D4F8D64
:1057A00058A1C701B6010E9493736DA37EA38FA376
:1057B00098A7A501940169A17AA18BA19CA10E943F
:1057C00093739B01AC016DA17EA18FA198A50E944E
:1057D0003C706DA37EA38FA398A7A5019401C70178
:1057E000B6010E9493736B017C012D8D3E8D4F8D10
:1057F00058A169A17AA18BA19CA10E9493739B01DE
:10580000AC01C701B6010E943B706D8F7E8F8F8FF8
:1058100098A3B9E1B9A32DA13EA14FA158A5279600
:105820006CAD7DAD8EAD9FAD27970E943C706983B6
:105830007A838B839C832D8D3E8D4F8D58A12B9623
:105840006CAD7DAD8EAD9FAD2B970E943C706D838E
:105850007E838F8398872BAD3CAD4DAD5EAD698562
:105860007A858B859C850E943C7069877A878B87B7
:105870009C8723962CAD3DAD4EAD5FAD23976D85D6
:105880007E858F8598890E943C706D877E878F8783
:10589000988BCE0101960E94F513E0902F021D8A8D
:1058A0001E8A1F8A188EFE0175966F018E01075E93
:1058B0001F4F9E01235F3F4FAE01475F5F4FBE0109
:1058C0006B5F7F4FCE0101960E941C4D811121C05C
:1058D000E0902F02198A1A8A1B8A1C8A9101245F80
:1058E0003F4FA101485F5F4FB1016C5F7F4FCE0119
:1058F00041966C018E01075E1F4FC1010E941C4D35
:1059000080E1F101ABE0B4E001900D928A95E1F7FE
:1059100006C0ADA5BEA51196BEA7ADA7A5CECE5A11
:10592000DF4F0FB6F894DEBF0FBECDBFDF91CF9132
:105930001F910F91FF90EF90DF90CF90BF90AF90AD
:105940009F908F907F906F905F904F903F902F909F
:1059500008953F924F925F926F927F928F929F92A3
:10596000AF92BF92CF92DF92EF92FF920F931F936D
:10597000CF93DF93CDB7DEB7A4970FB6F894DEBF11
:105980000FBECDBF90911F01992309F49EC1382EFF
:105990000E941E1119821A821B821C821D821E8285
:1059A0001F82188682E50E94FF0D882309F43CC1FE
:1059B0000E940C0E6B017C0180910B0490910C04F1
:1059C000A0910D04B0910E0489879A87AB87BC879C
:1059D00080910F0490911004A0911104B0911204D1
:1059E0008D879E87AF87B88B8091FB039091FC03D6
:1059F000A091FD03B091FE03898B9A8BAB8BBC8B7E
:105A00008091FF0390910004A0910104B0910204E1
:105A10008D8B9E8BAF8BB88F20E030E0A901C70142
:105A2000B6010E943171882309F414C129853A8591
:105A30004B855C8569897A898B899C890E94317143
:105A400081110DC02D853E854F8558896D897E89D0
:105A50008F89988D0E943171882309F4FBC0A32C93
:105A6000B12C01E010E020E030E0A901C701B6014F
:105A70000E94317187FD02C000E010E0A016B1065F
:105A800049F480E090E0A0E8BFE389A39AA3ABA328
:105A9000BCA308C080E090E0A0E8BFEB89A39AA374
:105AA000ABA3BCA329853A854B855C8569897A8936
:105AB0008B899C890E943B704B015C012D853E8542
:105AC0004F8558896D897E898F89988D0E943B709A
:105AD0006D8F7E8F8F8F98A3A5019401C501B401AE
